:020000040000FA
:100000000C9462000C948A000C948A000C948A0070
:100010000C948A000C948A000C948A000C948A0038
:100020000C948A000C948A000C948A000C948A0028
:100030000C948A000C948A000C948A000C948A0018
:100040000C9468030C948A000C94D8030C94B203AB
:100050000C948A000C948A000C948A000C948A00F8
:100060000C948A000C948A000000000023002600F3
:10007000290000000000240027002A0000000000E2
:10008000250028002B0004040404040404040202D4
:100090000202020203030303030301020408102007
:1000A0004080010204081020010204081020000012
:1000B0000008000201000003040700000000000027
:1000C0000000800611241FBECFEFD8E0DEBFCDBFF9
:1000D00011E0A0E0B1E0E6EAF2E102C005900D9285
:1000E000A035B107D9F722E0A0E5B1E001C01D922B
:1000F000A030B207E1F710E0C2E6D0E004C02197DB
:10010000FE010E944B09C136D107C9F70E944F0476
:100110000C9451090C94000090E0FC01E255FF4F53
:100120002491FC01E656FF4F3491FC01EA57FF4F42
:10013000E491EE23C9F0222339F0233001F1A8F431
:10014000213019F1223029F1F0E0EE0FFF1FE458C1
:10015000FF4FA591B4918FB7F894EC91611126C02F
:1001600030953E233C938FBF08952730A9F0283067
:10017000C9F0243049F7809180008F7D03C08091C1
:1001800080008F7780938000DFCF84B58F7784BD28
:10019000DBCF84B58F7DFBCF8091B0008F778093CC
:1001A000B000D2CF8091B0008F7DF9CF3E2BDACF57
:1001B000CF93DF9390E0FC01E656FF4F24918A57DE
:1001C0009F4FFC0184918823D1F090E0880F991F04
:1001D000FC01EE58FF4FA591B491FC01E458FF4F8C
:1001E000C591D49161110EC09FB7F8948C91E22F04
:1001F000E0958E238C932881E223E8839FBFDF91D3
:10020000CF9108958FB7F894EC91E22BEC938FBFC8
:10021000F6CF3FB7F89480915F0190916001A09173
:100220006101B091620126B5A89B05C02F3F19F06E
:100230000196A11DB11D3FBFBA2FA92F982F882766
:10024000BC01CD01620F711D811D911D42E0660F41
:10025000771F881F991F4A95D1F70895AF92BF92D3
:10026000CF92DF92EF92FF920F931F93CF93DF9382
:100270006C017B018B01040F151FEB015E01AE18B1
:10028000BF08C017D10759F06991D601ED91FC91D3
:100290000190F081E02DC6010995892B79F7C50100
:1002A000DF91CF911F910F91FF90EF90DF90CF9052
:1002B000BF90AF900895FC01538D448D252F30E001
:1002C000842F90E0821B930B541710F0CF96089563
:1002D00001970895FC01918D828D981761F0A28D90
:1002E000AE0FBF2FB11D5D968C91928D9F5F9F7356
:1002F000928F90E008958FEF9FEF0895FC01918D0C
:10030000828D981731F0828DE80FF11D858D90E078
:1003100008958FEF9FEF0895FC01918D228D892F15
:1003200090E0805C9F4F821B91098F7399270895FD
:1003300083E691E00E948C0121E0892B09F420E002
:10034000822F089580E090E0892B29F00E94980187
:1003500081110C9400000895FC01A48DA80FB92F01
:10036000B11DA35ABF4F2C91848D90E001968F73DD
:100370009927848FA689B7892C93A089B1898C91FC
:10038000837080648C93938D848D981306C002884B
:10039000F389E02D80818F7D80830895EF92FF9215
:1003A0000F931F93CF93DF93EC0181E0888F9B8D98
:1003B0008C8D98131AC0E889F989808185FF15C052
:1003C0009FB7F894EE89FF896083E889F989808175
:1003D0008370806480839FBF81E090E0DF91CF9144
:1003E0001F910F91FF90EF900895F62E0B8D10E066
:1003F0000F5F1F4F0F731127E02E8C8D8E110CC0D5
:100400000FB607FCFACFE889F989808185FFF5CF1F
:10041000CE010E94AC01F1CFEB8DEC0FFD2FF11D51
:10042000E35AFF4FF0829FB7F8940B8FEA89FB895C
:1004300080818062CFCFCF93DF93EC01888D8823BA
:10044000B9F0AA89BB89E889F9898C9185FD03C037
:10045000808186FD0DC00FB607FCF7CF8C9185FF1C
:10046000F2CF808185FFEDCFCE010E94AC01E9CFB4
:10047000DF91CF910895FC0101900020E9F73197B9
:10048000AF01481B590BBC0183E691E00C942E018F
:100490008F929F92AF92BF920F931F93CF93DF9350
:1004A000CDB7DEB7A1970FB6F894DEBF0FBECDBFB4
:1004B00019A2423008F44AE08E010F5D1F4F842ECE
:1004C000912CB12CA12CA50194010E94D706E62FF6
:1004D000B901CA01EA30F4F4E05DD801EE938D0170
:1004E000232B242B252B79F790E080E0109719F02F
:1004F000CD010E943B02A1960FB6F894DEBF0FBE5D
:10050000CDBFDF91CF911F910F91BF90AF909F9082
:100510008F900895E95CE1CF4F925F926F927F9246
:100520008F929F92AF92BF92CF92DF92EF92FF9203
:100530000F931F93CF936B017C01742EAC019B0131
:100540000E944609882399F082E191E0CF911F91A2
:100550000F91FF90EF90DF90CF90BF90AF909F9062
:100560008F907F906F905F904F900C943B0246016C
:100570005701E894B7F82FEF3FEF4FE75FE7C5016A
:10058000B4010E94460981110DC02FEF3FEF4FE7E4
:100590005FE7C501B4010E94750718161CF486E1D7
:1005A00091E0D4CF2FEF3FEF4FE75FE4C701B601F3
:1005B0000E94D40818161CF48AE191E0C7CF2FEFEF
:1005C0003FEF4FE75FECC701B6010E94750787FD5B
:1005D000F3CF20E030E0A901C701B6010E94750702
:1005E00010E000E087FF0AC06DE283E691E00E9420
:1005F000CE018C01F7FAF094F7F8F094C0E060E0D7
:1006000070E080E09FE37C1641F020E030E040E2C3
:1006100051E40E947A07CF5FF6CFA70196010E94AE
:1006200009072B013C010E94F3074B015C014AE0E2
:100630000E9448027C01E00EF11ECC23C1F1C501ED
:10064000B4010E9422089B01AC01C301B2010E94C7
:1006500008074B015C016EE283E691E00E94CE0147
:10066000E80EF91EC15018F120E030E040E251E4FC
:10067000C501B4010E94D9082B013C010E94F30777
:100680004B01B12CA12C4AE0C501B4010E944802E3
:10069000E80EF91EC501B4010E9422089B01AC01BD
:1006A000C301B2010E9408074B015C01DBCFC70107
:1006B000CF911F910F91FF90EF90DF90CF90BF905F
:1006C000AF909F908F907F906F905F904F90089524
:1006D0001F920F920FB60F9211242F933F938F9377
:1006E0009F93AF93BF9380915B0190915C01A09128
:1006F0005D01B0915E0130915A0123E0230F2D3747
:1007000058F50196A11DB11D20935A0180935B01FC
:1007100090935C01A0935D01B0935E0180915F01B5
:1007200090916001A0916101B09162010196A11DBB
:10073000B11D80935F0190936001A0936101B0931C
:100740006201BF91AF919F918F913F912F910F9037
:100750000FBE0F901F90189526E8230F0296A11D3B
:10076000B11DD2CF1F920F920FB60F9211242F936B
:100770003F934F935F936F937F938F939F93AF9329
:10078000BF93EF93FF9383E691E00E94AC01FF914A
:10079000EF91BF91AF919F918F917F916F915F91F9
:1007A0004F913F912F910F900FBE0F901F90189572
:1007B0001F920F920FB60F9211242F938F939F9336
:1007C000EF93FF93E0917301F09174018081E091C8
:1007D0007901F0917A0182FD1BC0908180917C01AA
:1007E0008F5F8F7320917D01821741F0E0917C0132
:1007F000F0E0ED59FE4F958F80937C01FF91EF91D2
:100800009F918F912F910F900FBE0F901F90189571
:100810008081F4CFCF92DF92EF92FF920F931F93DC
:10082000E82FF92F05C0015011092109310961F1A3
:10083000908196239417B9F305C00150110921093D
:10084000310911F1908196239413F7CFC12CD12C4B
:10085000E12CF12C0AC08FEFC81AD80AE80AF80A6E
:100860000C151D052E053F0579F080818623841720
:1008700091F36C2D7D2D8E2D9F2D1F910F91FF904B
:10088000EF90DF90CF90089560E070E080E090E01E
:100890001F910F91FF90EF90DF90CF900895789483
:1008A00084B5826084BD84B5816084BD85B5826075
:1008B00085BD85B5816085BD80916E008160809326
:1008C0006E0010928100809181008260809381008F
:1008D000809181008160809381008091800081609F
:1008E000809380008091B10084608093B1008091FA
:1008F000B00081608093B00080917A008460809322
:100900007A0080917A00826080937A0080917A00E8
:10091000816080937A0080917A00806880937A0069
:100920001092C100E0917301F091740182E0808324
:10093000E0916F01F09170011082E0917101F091EE
:1009400072018FEC808310927B01E0917701F0912E
:10095000780186E08083E0917501F09176018081D5
:1009600080618083E0917501F091760180818860DB
:100970008083E0917501F0917601808180688083A9
:10098000E0917501F091760180818F7D808361E037
:100990008DE00E94D80060E08CE00E94D80061E009
:1009A00089E00E94D80023E0622E712C3AE0832E69
:1009B000912CA12CB12CC0E0D0E060E08DE00E9431
:1009C0008C00C3010197F1F761E08DE00E948C007B
:1009D00083E290E00197F1F760E08DE00E948C00E7
:1009E000E6EAF0E06491E2E9F0E08491E82FF0E0DB
:1009F000EE0FFF1FE859FF4F8591949100E412E438
:100A00002FE030E0462F0E940A0461157105810530
:100A1000910529F06F5F7F4F8F4F9F4F9F700E940E
:100A2000240828E23EE74CE05DE30E94D90820E07C
:100A300030E040E05FE30E94D90860935601709374
:100A400057018093580190935901F3E4F0937C008F
:100A500080917A00806480937A0080917A0086FD8C
:100A6000FCCF6091780070917900072E000C880B04
:100A7000990B0E94240820E030E040E85AE30E94ED
:100A8000D90820E030E44CE955E40E94D90820E080
:100A900030E040E251E40E947A076B017C01C09291
:100AA0005201D0925301E0925401F09255012090EE
:100AB000560130905701409058015090590120E064
:100AC00030E0A901C201B1010E94D40818160CF04F
:100AD00012C120E030E04AEF53E4C201B1010E94AC
:100AE000750718160CF407C120E030E048EC51E41B
:100AF000C701B6010E94750704E610E087FD2CC00F
:100B000020E030E048EC51E4C701B6010E94D4086F
:100B100087FD2FC020E030E040EF51E4C701B6016F
:100B20000E94750718162CF1C701B6010E94EC0748
:100B30009B01AC012951310941095109ABE9B0E0F0
:100B40000E94CC06A50194010E94AD0689019A017C
:100B50000C591F4F2F4F3F4F1093510100935001DD
:100B600061E089E00E94D8000115110529F460E0D8
:100B700007C00FEF10E0F0CF0F3F110529F461E03F
:100B800089E00E948C0026C0E7EBF0E0849183307E
:100B900009F497C048F48130C9F0823009F48CC060
:100BA0000038110564F7E3CF873009F494C088302A
:100BB00009F499C08430A1F780918000806280930D
:100BC000800010938B0000938A0004C084B5806875
:100BD00084BD07BD8EE191E00E943B026091560109
:100BE00070915701809158019091590142E00E9403
:100BF0008C0289E291E00E943B0260915201709167
:100C00005301809154019091550142E00E948C0261
:100C10008CE391E00E943B02C0905001D0905101C2
:100C20000D2C000CEE08FF084AE0C701B601F7FEE4
:100C30000DC06DE283E691E00E94CE016627772722
:100C4000CB016C197D098E099F094AE00E94480278
:100C50008CE491E00E943B020E9409011B012C01DF
:100C600088EEC82E83E0D82EE12CF12C0E940901D9
:100C70006219730984099509683E734081059105DD
:100C8000A8F3F1E0CF1AD108E108F10828EE220E0E
:100C900023E0321E411C511CC114D104E104F104B3
:100CA00029F7209709F489CE0E949801882309F436
:100CB00084CE0E94000081CE84B5806284BD08BDD0
:100CC00089CF809180008068809380001093890094
:100CD000009388007FCF8091B00080688093B0003F
:100CE0000093B30077CF8091B00080628093B00012
:100CF0000093B4006FCF61E089E00E94D80037CF45
:100D0000E3E6F1E01382128288EE93E0A0E0B0E027
:100D100084839583A683B78384E091E09183808365
:100D200085EC90E09587848784EC90E097878687B0
:100D300080EC90E0918B808B81EC90E0938B828BA8
:100D400082EC90E0958B848B86EC90E0978B868B81
:100D5000118E128E138E148E0895052E97FB1EF49D
:100D600000940E94C40657FD07D00E94D70607FCD6
:100D700003D04EF40C94C4065095409530952195BF
:100D80003F4F4F4F5F4F08959095809570956195B7
:100D90007F4F8F4F9F4F08950E94F906A59F900D9A
:100DA000B49F900DA49F800D911D11240895A1E280
:100DB0001A2EAA1BBB1BFD010DC0AA1FBB1FEE1FD5
:100DC000FF1FA217B307E407F50720F0A21BB30B20
:100DD000E40BF50B661F771F881F991F1A9469F79C
:100DE00060957095809590959B01AC01BD01CF01F8
:100DF0000895A29FB001B39FC001A39F700D811DF4
:100E00001124911DB29F700D811D1124911D089513
:100E10005058BB27AA270E9420070C949A080E94CA
:100E20008C0838F00E94930820F039F49F3F19F4A1
:100E300026F40C9489080EF4E095E7FB0C948308E3
:100E4000E92F0E94AB0858F3BA17620773078407AB
:100E5000950720F079F4A6F50C94CD080EF4E095F2
:100E60000B2EBA2FA02D0B01B90190010C01CA0164
:100E7000A0011124FF27591B99F0593F50F4503E0F
:100E800068F11A16F040A22F232F342F4427585F01
:100E9000F3CF469537952795A795F0405395C9F719
:100EA0007EF41F16BA0B620B730B840BBAF09150D1
:100EB000A1F0FF0FBB1F661F771F881FC2F70EC070
:100EC000BA0F621F731F841F48F487957795679543
:100ED000B795F7959E3F08F0B0CF9395880F08F02F
:100EE0009927EE0F9795879508950E945F0808F45B
:100EF00081E008950E948E070C949A080E9493083E
:100F000058F00E948C0840F029F45F3F29F00C94BF
:100F1000830851110C94CE080C9489080E94AB08E8
:100F200068F39923B1F3552391F3951B550BBB2718
:100F3000AA2762177307840738F09F5F5F4F220F5D
:100F4000331F441FAA1FA9F335D00E2E3AF0E0E854
:100F500032D091505040E695001CCAF72BD0FE2F9E
:100F600029D0660F771F881FBB1F26173707480732
:100F7000AB07B0E809F0BB0B802DBF01FF279358EA
:100F80005F4F3AF09E3F510578F00C9483080C9423
:100F9000CE085F3FE4F3983ED4F386957795679546
:100FA000B795F7959F5FC9F7880F911D969587951F
:100FB00097F90895E1E0660F771F881FBB1F62173E
:100FC00073078407BA0720F0621B730B840BBA0BFC
:100FD000EE1F88F7E09508950E94F3076894B11119
:100FE0000C94CE0808950E94B30888F09F5798F09B
:100FF000B92F9927B751B0F0E1F0660F771F881F1E
:10100000991F1AF0BA95C9F714C0B13091F00E9437
:10101000CD08B1E008950C94CD08672F782F88276C
:10102000B85F39F0B93FCCF3869577956795B3955E
:10103000D9F73EF490958095709561957F4F8F4FCD
:101040009F4F0895E89409C097FB3EF490958095D2
:10105000709561957F4F8F4F9F4F9923A9F0F92F7E
:1010600096E9BB279395F695879577956795B795FC
:10107000F111F8CFFAF4BB0F11F460FF1BC06F5FE2
:101080007F4F8F4F9F4F16C0882311F096E911C0F4
:10109000772321F09EE8872F762F05C0662371F015
:1010A00096E8862F70E060E02AF09A95660F771F29
:1010B000881FDAF7880F9695879597F90895990F05
:1010C0000008550FAA0BE0E8FEEF16161706E80712
:1010D000F907C0F012161306E407F50798F0621B33
:1010E000730B840B950B39F40A2661F0232B242B08
:1010F000252B21F408950A2609F4A140A6958FEF27
:10110000811D811D089597F99F6780E870E060E078
:1011100008959FEF80EC089500240A941616170690
:1011200018060906089500240A94121613061406D8
:1011300005060895092E0394000C11F4882352F03B
:10114000BB0F40F4BF2B11F460FF04C06F5F7F4FF3
:101150008F4F9F4F089557FD9058440F551F59F0DA
:101160005F3F71F04795880F97FB991F61F09F3F94
:1011700079F087950895121613061406551FF2CFBD
:101180004695F1DF08C0161617061806991FF1CF0D
:1011900086957105610508940895E894BB27662734
:1011A0007727CB0197F908950E945F0808F48FEF25
:1011B00008950E94EC080C949A080E948C0838F05C
:1011C0000E94930820F0952311F00C9483080C944E
:1011D000890811240C94CE080E94AB0870F3959FE7
:1011E000C1F3950F50E0551F629FF001729FBB271E
:1011F000F00DB11D639FAA27F00DB11DAA1F649FBA
:101200006627B00DA11D661F829F2227B00DA11D6C
:10121000621F739FB00DA11D621F839FA00D611DF2
:10122000221F749F3327A00D611D231F849F600D13
:10123000211D822F762F6A2F11249F5750409AF03C
:10124000F1F088234AF0EE0FFF1FBB1F661F771FC8
:10125000881F91505040A9F79E3F510580F00C9493
:1012600083080C94CE085F3FE4F3983ED4F3869550
:1012700077956795B795F795E7959F5FC1F7FE2B33
:10128000880F911D9695879597F908950E945F089C
:10129000880B990B0895EE0FFF1F0590F491E02D38
:1012A0000994F894FFCF00000000CE012E015B01ED
:1012B0001B028C016A017E016E616E00696E660020
:1012C0006F76660044697374616E63653A2000202E
:1012D000636D2C2054656D70657261747572653A2A
:1012E000200020432C2046616E2053706565643ACF
:0612F00020000D0A0000C1
:107E0000112484B714BE81FFF0D085E080938100F7
:107E100082E08093C00088E18093C10086E0809377
:107E2000C20080E18093C4008EE0C9D0259A86E02C
:107E300020E33CEF91E0309385002093840096BBD3
:107E4000B09BFECF1D9AA8958150A9F7CC24DD24C4
:107E500088248394B5E0AB2EA1E19A2EF3E0BF2EE7
:107E6000A2D0813461F49FD0082FAFD0023811F036
:107E7000013811F484E001C083E08DD089C08234E0
:107E800011F484E103C0853419F485E0A6D080C0E4
:107E9000853579F488D0E82EFF2485D0082F10E0AE
:107EA000102F00270E291F29000F111F8ED06801E7
:107EB0006FC0863521F484E090D080E0DECF843638
:107EC00009F040C070D06FD0082F6DD080E0C81688
:107ED00080E7D80618F4F601B7BEE895C0E0D1E017
:107EE00062D089930C17E1F7F0E0CF16F0E7DF06D8
:107EF00018F0F601B7BEE89568D007B600FCFDCFD4
:107F0000A601A0E0B1E02C9130E011968C91119780
:107F100090E0982F8827822B932B1296FA010C0160
:107F200087BEE89511244E5F5F4FF1E0A038BF0790
:107F300051F7F601A7BEE89507B600FCFDCF97BE46
:107F4000E89526C08437B1F42ED02DD0F82E2BD052
:107F50003CD0F601EF2C8F010F5F1F4F84911BD097
:107F6000EA94F801C1F70894C11CD11CFA94CF0C13
:107F7000D11C0EC0853739F428D08EE10CD085E9AC
:107F80000AD08FE07ACF813511F488E018D01DD067
:107F900080E101D065CF982F8091C00085FFFCCF94
:107FA0009093C60008958091C00087FFFCCF809118
:107FB000C00084FD01C0A8958091C6000895E0E648
:107FC000F0E098E1908380830895EDDF803219F02E
:107FD00088E0F5DFFFCF84E1DECF1F93182FE3DFCA
:107FE0001150E9F7F2DF1F91089580E0E8DFEE27F6
:047FF000FF270994CA
:027FFE00040479
:00000001FF
